{
  "contractName": "Nirvana",
  "abi": [
    {
      "inputs": [],
      "payable": false,
      "stateMutability": "nonpayable",
      "type": "constructor"
    },
    {
      "constant": true,
      "inputs": [
        {
          "internalType": "address",
          "name": "",
          "type": "address"
        }
      ],
      "name": "customers",
      "outputs": [
        {
          "internalType": "bool",
          "name": "exists",
          "type": "bool"
        },
        {
          "internalType": "uint256",
          "name": "customer_collateral",
          "type": "uint256"
        },
        {
          "internalType": "uint256",
          "name": "duration",
          "type": "uint256"
        }
      ],
      "payable": false,
      "stateMutability": "view",
      "type": "function"
    },
    {
      "constant": true,
      "inputs": [
        {
          "internalType": "address",
          "name": "",
          "type": "address"
        }
      ],
      "name": "merchant_exists",
      "outputs": [
        {
          "internalType": "bool",
          "name": "",
          "type": "bool"
        }
      ],
      "payable": false,
      "stateMutability": "view",
      "type": "function"
    },
    {
      "constant": false,
      "inputs": [],
      "name": "registerCustomer",
      "outputs": [],
      "payable": true,
      "stateMutability": "payable",
      "type": "function"
    },
    {
      "constant": false,
      "inputs": [
        {
          "internalType": "address[]",
          "name": "_merchantAddresses",
          "type": "address[]"
        }
      ],
      "name": "add_merchants",
      "outputs": [],
      "payable": false,
      "stateMutability": "nonpayable",
      "type": "function"
    },
    {
      "constant": false,
      "inputs": [
        {
          "internalType": "uint256",
          "name": "amount",
          "type": "uint256"
        },
        {
          "internalType": "bytes",
          "name": "signature",
          "type": "bytes"
        },
        {
          "internalType": "address",
          "name": "cheating_customer",
          "type": "address"
        }
      ],
      "name": "claim_payment",
      "outputs": [],
      "payable": false,
      "stateMutability": "nonpayable",
      "type": "function"
    }
  ],
  "bytecode": "0x608060405234801561001057600080fd5b5033600160006101000a81548173ffffffffffffffffffffffffffffffffffffffff021916908373ffffffffffffffffffffffffffffffffffffffff160217905550610a7f806100616000396000f3fe60806040526004361061004a5760003560e01c80632511938e1461004f5780632735701114610141578063336989ae1461014b57806367fb729e146101c25780639ae4f5a714610287575b600080fd5b34801561005b57600080fd5b5061013f6004803603606081101561007257600080fd5b81019080803590602001909291908035906020019064010000000081111561009957600080fd5b8201836020820111156100ab57600080fd5b803590602001918460018302840111640100000000831117156100cd57600080fd5b91908080601f016020809104026020016040519081016040528093929190818152602001838380828437600081840152601f19601f820116905080830192505050505050509192919290803573ffffffffffffffffffffffffffffffffffffffff1690602001909291905050506102f0565b005b6101496104b2565b005b34801561015757600080fd5b5061019a6004803603602081101561016e57600080fd5b81019080803573ffffffffffffffffffffffffffffffffffffffff16906020019092919050505061059d565b6040518084151515158152602001838152602001828152602001935050505060405180910390f35b3480156101ce57600080fd5b50610285600480360360208110156101e557600080fd5b810190808035906020019064010000000081111561020257600080fd5b82018360208201111561021457600080fd5b8035906020019184602083028401116401000000008311171561023657600080fd5b919080806020026020016040519081016040528093929190818152602001838360200280828437600081840152601f19601f8201169050808301925050505050505091929192905050506105d4565b005b34801561029357600080fd5b506102d6600480360360208110156102aa57600080fd5b81019080803573ffffffffffffffffffffffffffffffffffffffff169060200190929190505050610744565b604051808215151515815260200191505060405180910390f35b60011515600460003373ffffffffffffffffffffffffffffffffffffffff1673ffffffffffffffffffffffffffffffffffffffff16815260200190815260200160002060009054906101000a900460ff16151514610399576040517f08c379a000000000000000000000000000000000000000000000000000000000815260040180806020018281038252602e815260200180610a1d602e913960400191505060405180910390fd5b6103a4838383610764565b610416576040517f08c379a00000000000000000000000000000000000000000000000000000000081526004018080602001828103825260198152602001807f57726f6e6720637573746f6d6572207369676e61747572652e0000000000000081525060200191505060405180910390fd5b82600360008373ffffffffffffffffffffffffffffffffffffffff1673ffffffffffffffffffffffffffffffffffffffff168152602001908152602001600020600101600082825403925050819055503373ffffffffffffffffffffffffffffffffffffffff166108fc849081150290604051600060405180830381858888f193505050501580156104ac573d6000803e3d6000fd5b50505050565b34600360003373ffffffffffffffffffffffffffffffffffffffff1673ffffffffffffffffffffffffffffffffffffffff168152602001908152602001600020600101819055506001600360003373ffffffffffffffffffffffffffffffffffffffff1673ffffffffffffffffffffffffffffffffffffffff16815260200190815260200160002060000160006101000a81548160ff02191690831515021790555042600360003373ffffffffffffffffffffffffffffffffffffffff1673ffffffffffffffffffffffffffffffffffffffff16815260200190815260200160002060020181905550565b60036020528060005260406000206000915090508060000160009054906101000a900460ff16908060010154908060020154905083565b600160009054906101000a900473ffffffffffffffffffffffffffffffffffffffff1673ffffffffffffffffffffffffffffffffffffffff163373ffffffffffffffffffffffffffffffffffffffff161461067a576040517f08c379a00000000000000000000000000000000000000000000000000000000081526004018080602001828103825260248152602001806109f96024913960400191505060405180910390fd5b806002908051906020019061069092919061092b565b5060008090505b60028054905081101561074057600160046000600284815481106106b757fe5b9060005260206000200160009054906101000a900473ffffffffffffffffffffffffffffffffffffffff1673ffffffffffffffffffffffffffffffffffffffff1673ffffffffffffffffffffffffffffffffffffffff16815260200190815260200160002060006101000a81548160ff0219169083151502179055508080600101915050610697565b5050565b60046020528060005260406000206000915054906101000a900460ff1681565b6000806107cd3086604051602001808373ffffffffffffffffffffffffffffffffffffffff1673ffffffffffffffffffffffffffffffffffffffff1660601b81526014018281526020019250505060405160208183030381529060405280519060200120610811565b90508273ffffffffffffffffffffffffffffffffffffffff166107f08286610869565b73ffffffffffffffffffffffffffffffffffffffff16149150509392505050565b60008160405160200180807f19457468657265756d205369676e6564204d6573736167653a0a333200000000815250601c01828152602001915050604051602081830303815290604052805190602001209050919050565b600080600080610878856108f0565b92509250925060018684848460405160008152602001604052604051808581526020018460ff1660ff1681526020018381526020018281526020019450505050506020604051602081039080840390855afa1580156108db573d6000803e3d6000fd5b50505060206040510351935050505092915050565b6000806000604184511461090357600080fd5b6020840151915060408401519050606084015160001a92508282829250925092509193909250565b8280548282559060005260206000209081019282156109a4579160200282015b828111156109a35782518260006101000a81548173ffffffffffffffffffffffffffffffffffffffff021916908373ffffffffffffffffffffffffffffffffffffffff1602179055509160200191906001019061094b565b5b5090506109b191906109b5565b5090565b6109f591905b808211156109f157600081816101000a81549073ffffffffffffffffffffffffffffffffffffffff0219169055506001016109bb565b5090565b9056fe4f6e6c79204e697276616e612063616e2063616c6c20746869732066756e6374696f6e2e596f7520617265206e6f742061206d65726368616e7420696e20746865204e697276616e61206e6574776f726b2ea265627a7a7231582011e0f132a7f864246453dfdfb67f2c2e294801be071663d3306951ed48eae21464736f6c63430005100032",
  "source": "pragma solidity >=0.4.22 <0.7.0;\r\n\r\n/*\r\nSPDX-License-Identifier: UNLICENSED\r\n*/\r\n/**\r\n* @title Nirvana\r\n* @dev Accept customer deposits and allow merchant withdrawals. A customer is allowed to deposit 100 milliether per collateral.\r\n*/\r\ncontract Nirvana {\r\n\r\nuint256 p_nonce; //indicates payment nonce. Used by Customers to make multiple payments to merchants. \r\n //uint256 secrets_required;\r\naddress owner;\r\naddress[] merchants_in_network;\r\n \r\nstruct Customer{\r\n    bool exists;\r\n    uint256 customer_collateral;\r\n    uint256 duration;\r\n    //bytes32[] secret_hashes;\r\n}\r\nmapping(address => Customer) public customers;\r\nmapping(address => bool) public merchant_exists; \r\n \r\nconstructor () public {\r\n    owner = msg.sender;\r\n \r\n}\r\n \r\nmodifier onlyOwner { require(msg.sender == owner, 'Only Nirvana can call this function.'); _;}\r\n \r\n\r\n \r\n \r\nfunction registerCustomer() public payable{\r\n    //secrets_required = (msg.value/1000000000000000000);\r\n    //require(secrets.length == secrets_required, 'Not enough secrets for deposited collateral!');\r\n    customers[msg.sender].customer_collateral = msg.value;\r\n    customers[msg.sender].exists = true;\r\n    customers[msg.sender].duration = block.timestamp; \r\n    //customers[msg.sender].secret_hashes = secrets;\r\n    //secrets_required = 0;\r\n}\r\n \r\nfunction add_merchants(address[] memory _merchantAddresses) public onlyOwner{\r\n    merchants_in_network = _merchantAddresses;\r\n    for(uint i=0; i<merchants_in_network.length; i++){\r\n        merchant_exists[merchants_in_network[i]] = true;\r\n    }\r\n}\r\n \r\nfunction claim_payment(uint256 amount, bytes memory signature, address cheating_customer) public{\r\n    require(merchant_exists[msg.sender] == true, 'You are not a merchant in the Nirvana network.');\r\n    require(isValidSignature(amount, signature, cheating_customer), \"Wrong customer signature.\");\r\n    customers[cheating_customer].customer_collateral -= amount;\r\n    msg.sender.transfer(amount);\r\n}\r\n \r\nfunction isValidSignature(uint256 amount, bytes memory signature, address cheater)\r\ninternal\r\nview\r\nreturns (bool)\r\n{\r\n    bytes32 message = prefixed(keccak256(abi.encodePacked(this, amount)));\r\n    // check that the signature is from the payment sender\r\n    return recoverSigner(message, signature) == cheater;\r\n}\r\n \r\n \r\nfunction splitSignature(bytes memory sig)\r\ninternal\r\npure\r\nreturns (uint8 v, bytes32 r, bytes32 s)\r\n{\r\n    require(sig.length == 65);\r\n\r\n    assembly {\r\n        // first 32 bytes, after the length prefix\r\n        r := mload(add(sig, 32))\r\n        // second 32 bytes\r\n        s := mload(add(sig, 64))\r\n       // final byte (first byte of the next 32 bytes)\r\n        v := byte(0, mload(add(sig, 96)))\r\n    }\r\n\r\nreturn (v, r, s);\r\n}\r\n\r\nfunction recoverSigner(bytes32 message, bytes memory sig)\r\ninternal\r\npure\r\nreturns (address)\r\n{\r\n    (uint8 v, bytes32 r, bytes32 s) = splitSignature(sig);\r\n\r\n    return ecrecover(message, v, r, s);\r\n}\r\n /// builds a prefixed hash to mimic the behavior of eth_sign.\r\nfunction prefixed(bytes32 hash) internal pure returns (bytes32) {\r\n    return keccak256(abi.encodePacked(\"\\x19Ethereum Signed Message:\\n32\", hash));\r\n}\r\n \r\n}",
  "sourcePath": "C:/Users/Akash Madhusudan/Documents/NirvanaCode/contracts/NirvanaPaymentChannel.sol",
  "compiler": {
    "name": "solc",
    "version": "0.5.16+commit.9c3226ce.Emscripten.clang"
  },
  "schemaVersion": "3.3.4",
  "updatedAt": "2021-03-30T12:00:22.918Z",
  "devdoc": {
    "details": "Accept customer deposits and allow merchant withdrawals. A customer is allowed to deposit 100 milliether per collateral.",
    "methods": {},
    "title": "Nirvana"
  },
  "userdoc": {
    "methods": {}
  }
}